:020000040800F2
:100000001805002019090008C1010008C3010008F3
:10001000C7010008CB010008CF0100080000000064
:10002000000000000000000000000000D3010008F4
:10003000D501000800000000D7010008D901000820
:1000400033090008330900083309000833090008A0
:100050003309000833090008330900083309000890
:100060003309000833090008330900083309000880
:100070003309000833090008330900083309000870
:100080003309000833090008330900083309000860
:100090003309000833090008330900083309000850
:1000A0003309000833090008330900083309000840
:1000B0003309000833090008330900083309000830
:1000C0003309000833090008330900083309000820
:1000D000330900084F0800083309000833090008F5
:1000E0003309000833090008330900083309000800
:1000F00033090008330900083309000833090008F0
:1001000033090008330900083309000833090008DF
:1001100033090008330900083309000833090008CF
:1001200033090008330900083309000833090008BF
:10013000DFF80CD001F0B6FE00480047450100088A
:100140001805002001210D2001F0AAF9012116480F
:1001500000F0BBFF1548406820F0200013494860BC
:1001600000F0B0FA4FF4A06000F0E8FB4FF4E1308B
:1001700000F021FB00F018FA00F030FA01200C49E1
:10018000086000F01BF90DE000F02EF90949086045
:1001900009480078012805D1002007490870074860
:1001A00000F0CCF9F0E7000000023000002004E08D
:1001B0009C81214200000020270000204A000020EE
:1001C000704700BFFEE700BFFEE700BFFEE700BFCD
:1001D000FEE7704770477047704700000CB500207D
:1001E000019000906C48006840F480306A490860D3
:1001F00000BF6948006800F4003000900198401C7E
:100200000190009818B90198B0F5A06FF1D162483B
:10021000006800F4003010B10120009001E00020DF
:1002200000900098012843D15C48006840F010001D
:100230005A4908600846006820F003000860084634
:10024000006840F002000860534840685249486026
:100250000846406848600846406840F4806048604E
:100260000846406820F47C1048600846406840F426
:10027000E81048600846006840F08070086000BFE1
:100280004548006800F000700028F9D042484068F6
:1002900020F00300404948600846406840F00200F2
:1002A000486000BF3C48406800F00C000828F9D1C5
:1002B0000CBD10B5FFF792FF10BD10B536480068B1
:1002C00040F001003449086008464068344908405D
:1002D0003149486008460068324908402E490860A4
:1002E0000846006820F4802008600846406820F432
:1002F000FE0048604FF41F008860FFF7DAFF4FF000
:1003000000602949086010BD10B5002100200022BE
:10031000214B5B6803F00C0121B1042906D00829A8
:1003200028D107E0214B224C236027E01F4B204CB3
:10033000236023E0184B5B6803F47010164B5B6876
:1003400003F48032022303EB904022B9194B43435C
:10035000174C23600DE0104B5B6803F4003323B1AE
:10036000144B4343124C236003E0104B4343104CA7
:10037000236003E00D4B0E4C236000BF00BF064B13
:100380005B68C3F303130C4CE15C094B1B68CB4067
:10039000074C236010BD0000001002400020024006
:1003A0000000FFF8FFFFF6FE08ED00E000127A0003
:1003B0000400002000093D000800002008B50121CC
:1003C000082001F06DF81020ADF800008DF8030052
:1003D00001208DF802006946674800F0A5FD102154
:1003E000654800F050FE08BD2DE9F04F8BB0634822
:1003F00008900A21012000F04AF90A90089801F0BB
:100400005DFCCDE906010A9801F03AFC019001F08B
:1004100055FC80464FF06632594B01F050FB0646C2
:100420004FF03332574B01F044FB574A574BCDE95D
:10043000020101F0B6FBCDE90401DDE9062301F07C
:1004400097FA04460022524B01F039FB824601F034
:1004500048FC099009980BB0BDE8F08F70B50024F6
:1004600000255A222146641C4A4842542146641CF5
:10047000425445222146641C425404222146641CF5
:1004800042544548006801F000FCC0F307222146B1
:10049000641C404842544048006801F0F6FB642167
:1004A00090FBF1F201FB1200C2B22146641C3948F4
:1004B000425400222146641C42542046611CCCB2A6
:1004C00034490A54002600BF05E03248405D3044FC
:1004D000C6B2681CC5B22F48C078001DA842F4DC23
:1004E0002046611CCCB22B490E5404222046611CCC
:1004F000CCB228490A5400251DE010211E4800F006
:10050000C0FD2648006808B9012000E0002023490A
:1005100008602048415D224801F062F900BF802157
:100520001F4801F0CBF90028F9D01021124800F043
:10053000AAFD681CC5B20B2DDFD370BD2DE9F041BB
:1005400004460026002504E0605D3044C6B2681C05
:10055000C5B2032DF8D3605DB0420AD1A778042F4D
:1005600007D1FFF77BFF0F480088401C00B20D4900
:100570000880BDE8F0810000000C01406666A63FDF
:1005800066664A3F3333E33F7B14AE47E17A643F0C
:100590000000594040000020000000209C812142C2
:1005A000003801401800002008B50121482000F063
:1005B00077FF8020ADF8000010208DF803000320A5
:1005C0008DF802006946044800F0AEFC8021024824
:1005D00000F057FD08BD0000000C014000B587B0D9
:1005E00001214FF4017000F05BFF4FF4004000F078
:1005F000BBFE0220ADF8040000208DF8070001A921
:100600002E4800F091FC2E4800F006FA00200290DF
:100610008DF80C008DF80D004FF460200490002040
:10062000059001208DF8180002A9254800F01BFA5A
:100630000121234800F043FA214800F062FA00BF8C
:100640001F4800F063FA0028FAD11D4800F068FA4C
:1006500000BF1B4800F069FA0028FAD107B000BDBE
:1006600010B50446072301222146154800F093FAED
:100670000121134800F063FA00BF0221104800F086
:10068000CFFB0028F9D00E4800F0ECFA10BD2DE9A0
:10069000F04107460C460025002608E03846FFF7E3
:1006A000DFFF0544042000F04AF8701CC6B2A642E1
:1006B000F4DBB5FBF4F080B2BDE8F0810008014046
:1006C0000024014010B56FF0040000F086F92E48B8
:1006D00000682E49B0FBF1F02D49087008460078FB
:1006E00000EB4001C1EBC0104FF6FF7101EAC00002
:1006F0002849088010BD0146254A12784A434FF028
:10070000E0235A6100229A611A46126942F00102FE
:100710001A6100BF4FF0E022106900F001021AB127
:1007200000F48032002AF5D04FF0E022126922F066
:1007300001024FF0E0231A6100229A6170470146DE
:10074000144A12884A434FF0E0235A6100229A610A
:100750001A46126942F001021A6100BF4FF0E0220E
:10076000106900F001021AB100F48032002AF5D0BD
:100770004FF0E022126922F001024FF0E0231A61EB
:1007800000229A61704700000400002000127A00E5
:100790001A0000201C000020014600BF704700BF67
:1007A000554A128802F04002002AF9D0C2B2524BD8
:1007B0001B1D1A80704710B586B00446012144F213
:1007C000040000F06DFE4FF40070ADF8140003203B
:1007D0008DF8160018208DF8170005A9474800F07D
:1007E000A3FB4FF48060ADF8140004208DF81700CF
:1007F00005A9424800F098FB25208DF80000032051
:100800008DF801008DF8020001208DF80300684684
:1008100000F099F801940020ADF80800ADF80A0046
:10082000ADF80C00ADF810000C20ADF80E0001A9D9
:10083000314800F0DCFE012240F225512E4800F044
:100840006EFF01212C4800F05EFF06B010BD10B510
:1008500040F22551284801F047F800284AD02648A0
:1008600000F0C2FFC4B226480088401C00B22449F0
:1008700008802448007802281AD12348018800887B
:10088000401C214A10802148445410460088042806
:1008900030DB1F480088401C00B21D490880012041
:1008A0001C4908700020174908701146088021E093
:1008B000A52C0ED11348007858B9012011490870B1
:1008C000114801880088401C0F4A10800F4844548A
:1008D00010E0852C0ED10B48007801280AD10220A7
:1008E00008490870084801880088401C064A1080A2
:1008F0000648445410BD0000003801400008014083
:100900002800002026000020240000204A000020AB
:100910002A0000202700002006488047064800479C
:10092000FEE7FEE7FEE7FEE7FEE7FEE7FEE7FEE79F
:10093000FEE7FEE7BB020008310100083149014330
:10094000314A1160704770B5002100230F22C4782E
:1009500004B32D4C246804F4E064C4F5E064210A77
:10096000C1F10403CA40447804FA03F184781440C6
:1009700021430901254C0678A155047804F01F0590
:100980000124AC4005786D11AD0005F1E025C5F8F6
:10099000004109E0047804F01F050124AC401C4D1F
:1009A0000678761145F8264070BD1A4A0A4002437F
:1009B000154B1B1F1A60704739B1134A121D12687C
:1009C0000243114B1B1D1A6006E00F4A121D1268EC
:1009D00082430D4B1B1D1A607047042808D14FF04D
:1009E000E021096941F004014FF0E022116107E0C4
:1009F0004FF0E021096921F004014FF0E02211617C
:100A0000704700000000FA050CED00E000E400E093
:100A100080E100E080FFFF1F10B50446FA488442E1
:100A200008D10121401500F055FD0021601500F0AE
:100A300051FD17E0F548844208D10121001500F06E
:100A400049FD0021201500F045FD0BE0F0488442EF
:100A500008D10121C80300F03DFD00214FF4004002
:100A600000F038FD10BD30B502460020002350686C
:100A7000E84C20400D790C6844EA0524204350607E
:100A80009068E54C2040D1E902542C434D7944EA6A
:100A9000450420439060D06A20F470000C7C641EF2
:100AA000E4B2234340EA0350D06230BD002101602C
:100AB000017141718160C16001210174704721B1F0
:100AC000826842F00102826003E0826822F0010243
:100AD0008260704721B1826842F48072826003E0D4
:100AE000826822F480728260704710B50023CBB216
:100AF0001AB144681C43446002E044689C4344606B
:100B000010BD816841F008018160704701460020F6
:100B10008A6802F008020AB1012000E00020704754
:100B2000816841F0040181607047014600208A68B5
:100B300002F004020AB1012000E00020704721B158
:100B4000826842F4A002826003E0826822F4A0027C
:100B500082607047014600208A6802F480020AB170
:100B6000012000E00020704710B50A460021002354
:100B7000416821F46041531E41EA4331416010BD98
:100B800021B1426842F40062426003E0426822F40C
:100B9000006242607047F0B504460D460020002117
:100BA000092D11DDE068A5F10A0606EB46070726C8
:100BB00006FA07F18843A5F10A0606EB460603FA92
:100BC00006F10843E0600CE0206905EB45070726C5
:100BD00006FA07F1884305EB450603FA06F10843D8
:100BE0002061072A0FDA606B561E06EB86071F2668
:100BF00006FA07F18843561E06EB860605FA06F14B
:100C00000843606322E00D2A0FDA206BD61F06EB43
:100C100086071F2606FA07F18843D61F06EB8606CD
:100C200005FA06F10843206310E0E06AA2F10D0620
:100C300006EB86071F2606FA07F18843A2F10D0688
:100C400006EB860605FA06F10843E062F0BD21B125
:100C5000826842F48012826003E0826822F480128B
:100C6000826070470146C86C80B2704766484C305D
:100C70000068704721B1426842F48062426003E03C
:100C8000426822F480624260704721B1426842F4B7
:100C90008052426003E0426822F480524260704712
:100CA0000A460021816821F4E041114381607047C8
:100CB00021B1826842F40042826003E0826822F43B
:100CC00000428260704721B1826842F40212826061
:100CD00003E0826822F4021282607047014600201D
:100CE0008A6802F400120AB1012000E00020704777
:100CF000F0B504461546002000220026092911DD22
:100D0000E068A1F10A0707EB470C072707FA0CF286
:100D10009043A1F10A0707EB470703FA07F21043D4
:100D2000E0600CE0206901EB410C072707FA0CF2A8
:100D3000904301EB410703FA07F210432061A06BD7
:100D4000C0F30156EF1C06F1010CA7EB0C0707EBF3
:100D5000870C1F2707FA0CF29043EF1C06F1010CD9
:100D6000A7EB0C0707EB870701FA07F21043A06314
:100D7000F0BD10B50A4600210023816B21F440111B
:100D8000531E41EA0351816310BD08B5002300934F
:100D90000090009B0B440093009B1A6008BD08B5AF
:100DA000024600200090009201F12800009B1844A8
:100DB00000900098006880B208BD0A460021416892
:100DC000164B19401143416070474162826270477F
:100DD0000A460021416821F01F011143416070471C
:100DE00040B109490831096841F40001064A083256
:100DF000116007E004490831096821F40001024A42
:100E000008321160704700000024014000280140B2
:100E1000003C0140FFFEF0FFFDF7F1FFFFFD3FFF4B
:100E20000246002013680B400BB1012000E00020B7
:100E30007047CA430260704770B502460020002325
:100E400000240B125568CEB205EA060415681D4051
:100E500015B10CB1012000E0002070BD00220A1283
:100E6000D34303607047000010B50446CC48844269
:100E700008D10121042000F02DFB0021042000F006
:100E800029FB46E0C748844208D10121082000F030
:100E900021FB0021082000F01DFB3AE0C2488442FB
:100EA00008D10121102000F015FB0021102000F0D6
:100EB00011FB2EE0BD48844208D10121202000F022
:100EC00009FB0021202000F005FB22E0B848844205
:100ED00008D10121402000F0FDFA0021402000F05F
:100EE000F9FA16E0B348844208D10121802000F0CD
:100EF000F1FA0021802000F0EDFA0AE0AE488442C9
:100F000007D10121801500F0E5FA0021A01500F0BD
:100F1000E1FA10BD10B50121084600F0DBFA00210E
:100F2000012000F0D7FA10BD2DE9F041024600255E
:100F30000026002000230024002791F803C00CF0B5
:100F40000F0591F803C00CF0100CBCF1000F03D09A
:100F500091F802C04CEA050591F800C0BCF1000F01
:100F600031D0146800202BE04FF0010C0CFA00F394
:100F7000B1F800C00CEA03069E4220D183004FF076
:100F80000F0C0CFA03F7BC4305FA03FC4CEA04040B
:100F900091F803C0BCF1280F06D14FF0010C0CFAF8
:100FA00000FCC2F814C00AE091F803C0BCF1480F7D
:100FB00005D14FF0010C0CFA00FCC2F810C0401C27
:100FC0000828D1D31460B1F800C0BCF1FF0F34DDA4
:100FD000546800202EE000F1080C4FF0010808FAD8
:100FE0000CF3B1F800C00CEA03069E4221D1830045
:100FF0004FF00F0C0CFA03F7BC4305FA03FC4CEA64
:10100000040491F803C0BCF1280F05D100F1080CCD
:1010100008FA0CF8C2F8148091F803C0BCF1480F2C
:1010200007D100F1080C4FF0010808FA0CF8C2F8DB
:101030001080401C0828CED35460BDE8F0814FF6E4
:10104000FF710180022181700421C1707047024646
:10105000002093680B400BB1012000E00020704796
:101060000146886880B2704702460020D3680B4072
:101070000BB1012000E0002070470146C86880B233
:10108000704701617047416170470AB1016100E03A
:1010900041617047C16070474FF480320A438261FA
:1010A0008161826182698269704702460020434BF8
:1010B00018684FF68073184040EA021008433F4B0F
:1010C000186070473E49C8617047F0B50A46002372
:1010D00000240021002500F00046B6F1004F02D1A7
:1010E000364EF16901E0354E7168C0F3034583B2B5
:1010F00000F44016B6F5401F08D121F070612F4E64
:10110000766826F070662D4F7E6012E000F480163F
:10111000B6F5801F06D1032606FA05F4A14341F077
:10112000706106E0460D360103FA06F6B14341F060
:10113000706122B1460D360103FA06F6314300F024
:101140000046B6F1004F02D11C4EF16101E01B4E8A
:101150007160F0BD30B500228B071C0F0F2303FA1E
:1011600004F2164B08338C1053F824309343134C7D
:1011700008348D1044F8253023468C1053F8243061
:101180008C07240F00FA04F423430C4C08348D1010
:1011900044F8253030BD0A49DC3108607047000052
:1011A00000080140000C0140001001400014014003
:1011B00000180140001C01400020014000000140D7
:1011C00000002042DF48006840F00100DD4908606F
:1011D00008464068DC490840DA494860084600682B
:1011E000DA490840D74908600846006820F48020A2
:1011F00008600846406820F4FE0048604FF41F0075
:1012000088607047CF49096821F48031CD4A116068
:101210001146096821F480211160B0F5803F03D0A8
:10122000B0F5802F0ED106E0C649096841F480313F
:10123000C44A116007E0C349096841F4A021C14ACA
:10124000116000E000BF00BF704710B501460022EA
:10125000002300204A11012A02D1BA4C236806E07B
:10126000022A02D1B74C236A01E0B64C636A01F04E
:101270001F02012494401C400CB1012000E000201A
:1012800010BD38B5002000900024002500BF31209B
:10129000FFF7DBFF05460098401C00900098B0F572
:1012A000A06F01D0002DF2D03120FFF7CEFF08B1A2
:1012B000012400E00024204638BD01460020A14A58
:1012C000106820F0F80040EAC10010607047A049A3
:1012D00008607047024600209A4B586820F47C1042
:1012E00042EA01031843974B5860704798490866D3
:1012F000704701460020934A506820F003000843DD
:10130000506070478F48406800F00C0070470146FD
:1013100000208C4A506820F0F0000843506070476D
:1013200001460020874A506820F4E060084350607E
:10133000704701460020834A506820F4605040EA1C
:10134000C1005060704729B17E4A527A02437D4BFA
:101350005A7204E07B4A527A82437A4B5A7270473F
:101360007B49D8310860704701460020754A5068B3
:1013700020F440400843506070470021714A2032F9
:101380001170704A82F82010012802D004280AD176
:1013900004E001216B4A2032117005E00521694A01
:1013A0002032117000E000BF00BF7047694908603B
:1013B00070476449096A0143624A1162704765498E
:1013C00044390860704730B5002100220024002312
:1013D0005C4D6D6805F00C0121B1042905D0082988
:1013E00023D105E05C4D056022E05B4D05601FE008
:1013F000544D6D6805F47012524D6D6805F48034DB
:10140000022505EB92421CB9544D554305600BE093
:101410004C4D6D6805F400351DB1504D55430560C8
:1014200002E04D4D5543056002E04B4D056000BFA5
:1014300000BF444D6D6805F0F0010909484D6B5C33
:101440000568DD4045603F4D6D6805F4E061090ABF
:10145000434D6B5C4568DD4085603A4D6D6805F431
:101460006051C90A3E4D6B5C4568DD40C560354D35
:101470006D6805F44041890B3A4D6B5CC568B5FB5E
:10148000F3F5056130BD29B12E4A526902432D4B57
:101490005A6104E02B4A526982432A4B5A617047D1
:1014A00029B1284A92690243264B9A6104E0254AF1
:1014B00092698243234B9A61704729B1214AD269CC
:1014C0000243204BDA6104E01E4AD26982431D4B7D
:1014D000DA61704729B11B4AD2680243194BDA60BE
:1014E00004E0184AD2688243164BDA60704729B18B
:1014F000144A12690243134B1A6104E0114A12693B
:101500008243104B1A617047124940390860704796
:101510000F49C86470470B49C87170470948406A51
:1015200040F0807007494862704701460020054A34
:1015300092680A400AB1012000E00020704701498A
:1015400088727047001002400000FFF8FFFFF6FEAF
:10155000000042428004424200127A0000093D002D
:101560002C0000203C00002010B50446FB488442BB
:1015700009D101218803FFF7ADFF00214FF480401E
:10158000FFF7A8FF32E0F648844209D10121480460
:10159000FFF7ADFF00214FF40030FFF7A8FF25E073
:1015A000F048844209D101218804FFF7A0FF0021FF
:1015B0004FF48020FFF79BFF18E0EB48844209D1ED
:1015C0000121C804FFF793FF00214FF40020FFF72B
:1015D0008EFF0BE0E548844208D101210805FFF7A2
:1015E00086FF00214FF48010FFF781FF10BD2DE929
:1015F000F04786B005460E460024A24600BFA1462D
:101600000027B08900B100BF2F462C8A4CF6FF702E
:101610000440F08804432C82AC894EF6F310044059
:10162000B08831890843718908430443AC81AC8A8E
:101630004FF6FF400440B0890443AC8201A8FFF795
:10164000C2FEC648874202D1DDF810A001E0DDF8F5
:101650000CA0A88900F4004040B10AEBCA0000EBDE
:101660000A1031684900B0FBF1F807E00AEBCA0044
:1016700000EB0A1031688900B0FBF1F86420B8FB78
:10168000F0F004012009642101FB1089A88900F40D
:10169000004040B1322000EBC900B0FBF1F000F097
:1016A0000700044308E0322000EB09106421B0FB7E
:1016B000F1F000F00F0004432C8106B0BDE8F08784
:1016C0004FF41651016000218180C18001810C21FD
:1016D000418100218181704710B502460020108AA7
:1016E0004FF2FF0318400B884C8823438C88234318
:1016F000CC8823431843108210BD00210180418013
:101700008180C180704721B1828942F40052828178
:1017100004E082894DF6FF731A4082817047F0B56C
:101720000346002400260025002040F66A17B9422F
:1017300000D100BF1846C1F3421401F01F06012773
:1017400007FA06F5012C01D10C3004E0022C01D17E
:10175000103000E014301AB107682F43076002E030
:101760000768AF430760F0BD1AB1838A0B438382D9
:1017700002E0838A8B4383827047028A4FF6F073BC
:101780001A400282028A0A430282704782894FF21B
:10179000FF731A40828182890A438281704721B196
:1017A000828942F00202828104E082894FF6FD7351
:1017B0001A4082817047028A4FF6DF731A40028214
:1017C000028A0A430282704721B1028A42F48042AF
:1017D000028204E0028A4BF6FF731A4002827047CD
:1017E000C1F308028280704701468888C0F3080070
:1017F0007047818941F0010181817047028BD2B22B
:101800000283028B42EA012202837047028B02F4B8
:101810007F420283028B0A430283704721B1828A8E
:1018200042F02002828204E0828A4FF6DF731A407F
:101830008282704721B1828A42F01002828204E0E3
:10184000828A4FF6EF731A408282704721B1828AF2
:1018500042F00802828204E0828A4FF6F7731A404F
:101860008282704721B1828942F40042828103E082
:101870008289C2F30E028281704721B1828A42F4CA
:101880000062828204E0828A4FF2FF731A408282F1
:101890007047828A4FF6FB731A408282828A0A431B
:1018A0008282704721B1828A42F00202828204E081
:1018B000828A4FF6FD731A408282704702460020EA
:1018C000B1F5007F00D100BF13880B400BB10120A0
:1018D00000E00020704701F40072B2F5007F00D1F3
:1018E00000BFCA430280704770B50246002400233F
:1018F0000025002040F66A16B14200D100BFC1F3B6
:10190000421501F01F03012606FA03F3012D02D14F
:101910009689334006E0022D02D1168A334001E059
:10192000968A33400C12012606FA04F416883440D5
:1019300013B10CB1012000E0002070BD10B50022F1
:10194000002340F66A14A14200D100BF0A1201240C
:101950009440A3B2DC43048010BD00000038014075
:101960000044004000480040004C0040005000404F
:101970002DE9FE4F804681EA0300C00F0C4600901F
:1019800021F0004123F00045B8EB0200A94105D247
:101990004046214690461C460B46024623F0004036
:1019A000104347D0270DC7F30A00C3F30A51029032
:1019B000401A019040286BDAC3F3130040F4801BF7
:1019C0000098924620B10023D2EB030A63EB0B0B85
:1019D00001985946C0F14002504600F09EF9064673
:1019E0000D4650465946019A00F0B6F910EB080032
:1019F0006141002487EA115284EAE7731A4340D018
:101A0000009A62B3019A012A4FEA075215DC001BC3
:101A100061EB02014FF0004202EA0752CDE90042B9
:101A2000001C41F5801132462B4600F0EDF903B061
:101A3000BDE8F08F40462146F9E7001B61EB02014B
:101A4000001C41F5801300185B412018A2F5001717
:101A500047EB030140EAD570B6196D4111E06D08FE
:101A60004FEA360645EAC0754FEA0752001B61EBA4
:101A70000201001C41F5801149084FEA30000019AD
:101A8000514132462B4603B0BDE8F04F00F0ADB9EE
:101A90000098012240000023D0EB020263EBE073C8
:101AA000009821464FEAE074B8EB000061EB0401B6
:101AB000E9E783F000435BE781F0004158E72DE957
:101AC000FE4F81EA030404F0004421F00041009439
:101AD0004FF0000B23F0004350EA01045ED052EABD
:101AE00003045BD0C3F30A54C1F30A552C44A4F297
:101AF000F3340194A0FB0254C1F3130141F48011AB
:101B0000C3F3130343F4801301FB024400FB034EB1
:101B1000840A970A44EA815447EA8357A4FB07687A
:101B200002958D0A05FB07854FEA932C04FB0C54A4
:101B30002705029D4FEA065847EA1637B5EB080518
:101B40006EEB070C870E920E47EA811742EA83126A
:101B5000A7FB0201B6EB0B0164EB00042B0D43EA7B
:101B60000C335E1844EB1C50DA465146E7FB020189
:101B7000C5F313044FEA0B3343EA14534FEA04321C
:101B8000019C43EA0603A4F10C040294009CCDE9F5
:101B900000B400F039F903B0BDE8F08F0020014631
:101BA000F9E72DE9F04D81EA030404F0004B21F040
:101BB000004514464FF0000A23F0004150EA0502A8
:101BC00020D054EA01021DD0C5F30A570246C5F3DE
:101BD0001303C1F31300C1F30A5640F4801543F414
:101BE0008013A7EB0608101BD64608F2FD3873EBEE
:101BF000050002D308F1010801E092185B41B8F139
:101C0000000F03DA00200146BDE8F08D00204FF4FC
:101C10008011064684460EE0171B73EB050705D3BB
:101C2000121B63EB050306434CEA010C49084FEA1B
:101C3000300092185B4150EA0107EDD152EA0300EF
:101C400012D082EA040083EA0501084305D0101B84
:101C5000AB4106D20122002306E000224FF00043F0
:101C600002E06FF0010253101AEB06004CEB085132
:101C700010EB0A0041EB0B01BDE8F04D00F0B5B8E8
:101C800096230022114600F082B800F0004220F0B6
:101C90000040C10DC0F3160040F400007F2901DAB6
:101CA00000207047962903DCC1F19601C84001E08D
:101CB00096398840002AF4D04042704700F0004234
:101CC00030F000400AD0C10D01F56071C0F316007C
:101CD00042EA0151C2084007114370470020014603
:101CE000704701F0004330B421F0004150EA010296
:101CF00006D00A0DA2F56072C1F31301002A02DCBE
:101D000030BC00207047440F44EAC104C100E01811
:101D100030BC00EBC25000F031B8202A04DB203A7E
:101D200000FA02F1002070479140C2F1200320FA2E
:101D300003F3194390407047202A04DB203A21FA2C
:101D400002F00021704721FA02F3D040C2F12002D4
:101D50009140084319467047202A06DBCB17203AEA
:101D600041FA02F043EAE07306E041FA02F3D040A0
:101D7000C2F1200291400843194670470029A8BFCC
:101D80007047401C490008BF20F00100704710B4A4
:101D9000B0FA80FC00FA0CF050EA010404BF10BC59
:101DA000704749B1CCF1200421FA04F411FA0CF186
:101DB00018BF012121430843A3EB0C01CB1D4FEABF
:101DC00000614FEA102042BF002010BC704700EBBA
:101DD000C35010440029A4BF10BC7047401C4900E8
:101DE00008BF20F0010010BC704710B5141E73F13D
:101DF000000408DA401C41F1000192185B411A43CB
:101E000001D120F0010010BD2DE9F04D92469B4616
:101E100011B1B1FA81F202E0B0FA80F220329046BC
:101E2000FFF77BFF04460F4640EA0A0041EA0B0138
:101E300053465A46084313D0114653EA010019D0BD
:101E4000C8F140025046FFF777FF05460E46504660
:101E500059464246FFF761FF084305D0012004E0E0
:101E600020463946BDE8F08D0020054346EAE0767D
:101E70002C4337430A986305E40AA0EB08000022CC
:101E8000FD0A44EA47540A3002D500200146E9E73A
:101E9000010510196941DDE9084500196941BDE8EE
:101EA000F04DA2E7064C074D06E0E06840F0010364
:101EB00094E8070098471034AC42F6D3FEF73CF99B
:101EC000E81E0008081F000802E008C8121F08C129
:101ED000002AFAD170477047002001E001C1121FAB
:101EE000002AFBD170470000081F000800000020F6
:101EF00040000000C81E0008481F000840000020E5
:101F0000D8040000D81E00080000000000A24A0407
:101F10000000000000000000010203040607080999
:101F200000000000000000000000000000000000B1
:101F3000000000000000000001020304010203048D
:081F4000060708090204060867
:0400000508000131BD
:00000001FF
